{
  "contractName": "RemoteWorkEscrow",
  "abi": [
    {
      "inputs": [
        {
          "internalType": "address",
          "name": "_arbiter",
          "type": "address"
        }
      ],
      "stateMutability": "nonpayable",
      "type": "constructor"
    },
    {
      "anonymous": false,
      "inputs": [
        {
          "indexed": true,
          "internalType": "address",
          "name": "sender",
          "type": "address"
        },
        {
          "indexed": false,
          "internalType": "uint256",
          "name": "id",
          "type": "uint256"
        },
        {
          "indexed": false,
          "internalType": "string",
          "name": "name",
          "type": "string"
        },
        {
          "indexed": false,
          "internalType": "uint256",
          "name": "amount",
          "type": "uint256"
        }
      ],
      "name": "abandonedTask",
      "type": "event"
    },
    {
      "anonymous": false,
      "inputs": [
        {
          "indexed": true,
          "internalType": "address",
          "name": "sender",
          "type": "address"
        },
        {
          "indexed": false,
          "internalType": "uint256",
          "name": "id",
          "type": "uint256"
        },
        {
          "indexed": false,
          "internalType": "string",
          "name": "name",
          "type": "string"
        },
        {
          "indexed": false,
          "internalType": "uint256",
          "name": "amount",
          "type": "uint256"
        }
      ],
      "name": "acceptedTask",
      "type": "event"
    },
    {
      "anonymous": false,
      "inputs": [
        {
          "indexed": true,
          "internalType": "address",
          "name": "sender",
          "type": "address"
        },
        {
          "indexed": false,
          "internalType": "uint256",
          "name": "id",
          "type": "uint256"
        },
        {
          "indexed": false,
          "internalType": "string",
          "name": "name",
          "type": "string"
        },
        {
          "indexed": false,
          "internalType": "uint256",
          "name": "amount",
          "type": "uint256"
        }
      ],
      "name": "beneficiaryRefunded",
      "type": "event"
    },
    {
      "anonymous": false,
      "inputs": [
        {
          "indexed": true,
          "internalType": "address",
          "name": "sender",
          "type": "address"
        },
        {
          "indexed": false,
          "internalType": "address",
          "name": "beneficiary",
          "type": "address"
        },
        {
          "indexed": false,
          "internalType": "uint256",
          "name": "id",
          "type": "uint256"
        },
        {
          "indexed": false,
          "internalType": "string",
          "name": "name",
          "type": "string"
        },
        {
          "indexed": false,
          "internalType": "uint256",
          "name": "amount",
          "type": "uint256"
        }
      ],
      "name": "closeTask",
      "type": "event"
    },
    {
      "anonymous": false,
      "inputs": [
        {
          "indexed": true,
          "internalType": "address",
          "name": "sender",
          "type": "address"
        },
        {
          "indexed": false,
          "internalType": "uint256",
          "name": "id",
          "type": "uint256"
        },
        {
          "indexed": false,
          "internalType": "string",
          "name": "name",
          "type": "string"
        },
        {
          "indexed": false,
          "internalType": "uint256",
          "name": "amount",
          "type": "uint256"
        }
      ],
      "name": "deletedTask",
      "type": "event"
    },
    {
      "anonymous": false,
      "inputs": [
        {
          "indexed": true,
          "internalType": "address",
          "name": "sender",
          "type": "address"
        },
        {
          "indexed": false,
          "internalType": "address",
          "name": "resolver",
          "type": "address"
        },
        {
          "indexed": false,
          "internalType": "uint256",
          "name": "id",
          "type": "uint256"
        },
        {
          "indexed": false,
          "internalType": "string",
          "name": "name",
          "type": "string"
        },
        {
          "indexed": false,
          "internalType": "uint256",
          "name": "amount",
          "type": "uint256"
        }
      ],
      "name": "disputedTask",
      "type": "event"
    },
    {
      "anonymous": false,
      "inputs": [
        {
          "indexed": true,
          "internalType": "address",
          "name": "sender",
          "type": "address"
        },
        {
          "indexed": false,
          "internalType": "uint256",
          "name": "id",
          "type": "uint256"
        },
        {
          "indexed": false,
          "internalType": "string",
          "name": "name",
          "type": "string"
        },
        {
          "indexed": false,
          "internalType": "uint256",
          "name": "amount",
          "type": "uint256"
        }
      ],
      "name": "newTask",
      "type": "event"
    },
    {
      "anonymous": false,
      "inputs": [
        {
          "indexed": true,
          "internalType": "address",
          "name": "sender",
          "type": "address"
        },
        {
          "indexed": false,
          "internalType": "uint256",
          "name": "id",
          "type": "uint256"
        },
        {
          "indexed": false,
          "internalType": "string",
          "name": "name",
          "type": "string"
        },
        {
          "indexed": false,
          "internalType": "uint256",
          "name": "amount",
          "type": "uint256"
        }
      ],
      "name": "submittedTask",
      "type": "event"
    },
    {
      "anonymous": false,
      "inputs": [
        {
          "indexed": true,
          "internalType": "address",
          "name": "sender",
          "type": "address"
        },
        {
          "indexed": false,
          "internalType": "uint256",
          "name": "id",
          "type": "uint256"
        },
        {
          "indexed": false,
          "internalType": "string",
          "name": "name",
          "type": "string"
        },
        {
          "indexed": false,
          "internalType": "bool",
          "name": "prev",
          "type": "bool"
        },
        {
          "indexed": false,
          "internalType": "bool",
          "name": "current",
          "type": "bool"
        }
      ],
      "name": "toggleDisputeMarker",
      "type": "event"
    },
    {
      "inputs": [
        {
          "internalType": "uint256",
          "name": "",
          "type": "uint256"
        }
      ],
      "name": "AgentToTask",
      "outputs": [
        {
          "internalType": "address",
          "name": "",
          "type": "address"
        }
      ],
      "stateMutability": "view",
      "type": "function"
    },
    {
      "inputs": [],
      "name": "arbiter",
      "outputs": [
        {
          "internalType": "address",
          "name": "",
          "type": "address"
        }
      ],
      "stateMutability": "view",
      "type": "function"
    },
    {
      "inputs": [],
      "name": "owner",
      "outputs": [
        {
          "internalType": "address",
          "name": "",
          "type": "address"
        }
      ],
      "stateMutability": "view",
      "type": "function"
    },
    {
      "inputs": [],
      "name": "taskCounter",
      "outputs": [
        {
          "internalType": "uint256",
          "name": "",
          "type": "uint256"
        }
      ],
      "stateMutability": "view",
      "type": "function"
    },
    {
      "inputs": [
        {
          "internalType": "string",
          "name": "_taskName",
          "type": "string"
        }
      ],
      "name": "addTask",
      "outputs": [],
      "stateMutability": "payable",
      "type": "function"
    },
    {
      "inputs": [],
      "name": "getContractBalance",
      "outputs": [
        {
          "internalType": "uint256",
          "name": "",
          "type": "uint256"
        }
      ],
      "stateMutability": "view",
      "type": "function"
    },
    {
      "inputs": [
        {
          "internalType": "uint256",
          "name": "_Id",
          "type": "uint256"
        }
      ],
      "name": "getTask",
      "outputs": [
        {
          "internalType": "uint256",
          "name": "_taskId",
          "type": "uint256"
        },
        {
          "internalType": "string",
          "name": "_taskName",
          "type": "string"
        },
        {
          "internalType": "uint256",
          "name": "_taskAmount",
          "type": "uint256"
        },
        {
          "internalType": "enum RemoteWorkEscrow.TaskState",
          "name": "",
          "type": "uint8"
        },
        {
          "internalType": "bool",
          "name": "UnderDispute",
          "type": "bool"
        }
      ],
      "stateMutability": "view",
      "type": "function"
    },
    {
      "inputs": [
        {
          "internalType": "uint256",
          "name": "_taskId",
          "type": "uint256"
        }
      ],
      "name": "acceptCompletion",
      "outputs": [],
      "stateMutability": "nonpayable",
      "type": "function"
    },
    {
      "inputs": [
        {
          "internalType": "uint256",
          "name": "_taskId",
          "type": "uint256"
        }
      ],
      "name": "deleteTask",
      "outputs": [],
      "stateMutability": "nonpayable",
      "type": "function"
    },
    {
      "inputs": [
        {
          "internalType": "uint256",
          "name": "_taskId",
          "type": "uint256"
        }
      ],
      "name": "acceptTask",
      "outputs": [],
      "stateMutability": "nonpayable",
      "type": "function"
    },
    {
      "inputs": [
        {
          "internalType": "uint256",
          "name": "_taskId",
          "type": "uint256"
        }
      ],
      "name": "taskSubmitted",
      "outputs": [],
      "stateMutability": "nonpayable",
      "type": "function"
    },
    {
      "inputs": [
        {
          "internalType": "uint256",
          "name": "_taskId",
          "type": "uint256"
        }
      ],
      "name": "abandonTask",
      "outputs": [],
      "stateMutability": "nonpayable",
      "type": "function"
    },
    {
      "inputs": [
        {
          "internalType": "uint256",
          "name": "_taskId",
          "type": "uint256"
        }
      ],
      "name": "raiseDispute",
      "outputs": [],
      "stateMutability": "nonpayable",
      "type": "function"
    },
    {
      "inputs": [
        {
          "internalType": "uint256",
          "name": "_taskId",
          "type": "uint256"
        }
      ],
      "name": "refundBeneficiary",
      "outputs": [],
      "stateMutability": "nonpayable",
      "type": "function"
    },
    {
      "inputs": [
        {
          "internalType": "uint256",
          "name": "_taskId",
          "type": "uint256"
        }
      ],
      "name": "payAgent",
      "outputs": [],
      "stateMutability": "nonpayable",
      "type": "function"
    },
    {
      "inputs": [
        {
          "internalType": "uint256",
          "name": "_taskId",
          "type": "uint256"
        }
      ],
      "name": "toggleDispute",
      "outputs": [],
      "stateMutability": "nonpayable",
      "type": "function"
    }
  ],
  "bytecode": "0x60806040523480156200001157600080fd5b5060405162002d1038038062002d10833981810160405281019062000037919062000131565b336000806101000a81548173ffffffffffffffffffffffffffffffffffffffff021916908373ffffffffffffffffffffffffffffffffffffffff16021790555080600160006101000a81548173ffffffffffffffffffffffffffffffffffffffff021916908373ffffffffffffffffffffffffffffffffffffffff16021790555060016002819055505062000163565b600080fd5b600073ffffffffffffffffffffffffffffffffffffffff82169050919050565b6000620000f982620000cc565b9050919050565b6200010b81620000ec565b81146200011757600080fd5b50565b6000815190506200012b8162000100565b92915050565b6000602082840312156200014a5762000149620000c7565b5b60006200015a848285016200011a565b91505092915050565b612b9d80620001736000396000f3fe6080604052600436106100f35760003560e01c80638da5cb5b1161008a578063b5eaaaef11610059578063b5eaaaef14610309578063cb8413c214610332578063fe25e00a1461035b578063ffe2773414610386576100f3565b80638da5cb5b14610263578063a36ecadd1461028e578063a5c1674e146102b7578063ad9b2392146102e0576100f3565b806358671730116100c657806358671730146101b457806367238562146101df5780636c422473146101fb5780636f9fb98a14610238576100f3565b80630b172570146100f85780631bf6912d146101215780631d65e77e1461014a578063560f31921461018b575b600080fd5b34801561010457600080fd5b5061011f600480360381019061011a91906121f7565b6103af565b005b34801561012d57600080fd5b50610148600480360381019061014391906121f7565b610627565b005b34801561015657600080fd5b50610171600480360381019061016c91906121f7565b6108c6565b60405161018295949392919061235e565b60405180910390f35b34801561019757600080fd5b506101b260048036038101906101ad91906121f7565b610a14565b005b3480156101c057600080fd5b506101c9610db1565b6040516101d691906123b8565b60405180910390f35b6101f960048036038101906101f49190612438565b610db7565b005b34801561020757600080fd5b50610222600480360381019061021d91906121f7565b611083565b60405161022f91906124c6565b60405180910390f35b34801561024457600080fd5b5061024d6110b6565b60405161025a91906123b8565b60405180910390f35b34801561026f57600080fd5b506102786110be565b60405161028591906124c6565b60405180910390f35b34801561029a57600080fd5b506102b560048036038101906102b091906121f7565b6110e2565b005b3480156102c357600080fd5b506102de60048036038101906102d991906121f7565b611292565b005b3480156102ec57600080fd5b50610307600480360381019061030291906121f7565b6114f3565b005b34801561031557600080fd5b50610330600480360381019061032b91906121f7565b6117e1565b005b34801561033e57600080fd5b50610359600480360381019061035491906121f7565b611ad9565b005b34801561036757600080fd5b50610370611d5c565b60405161037d91906124c6565b60405180910390f35b34801561039257600080fd5b506103ad60048036038101906103a891906121f7565b611d82565b005b600160009054906101000a900473ffffffffffffffffffffffffffffffffffffffff1673ffffffffffffffffffffffffffffffffffffffff163373ffffffffffffffffffffffffffffffffffffffff161461043f576040517f08c379a00000000000000000000000000000000000000000000000000000000081526004016104369061252d565b60405180910390fd5b600115156004600083815260200190815260200160002060030160019054906101000a900460ff161515146104a9576040517f08c379a00000000000000000000000000000000000000000000000000000000081526004016104a090612599565b60405180910390fd5b6005600082815260200190815260200160002060009054906101000a900473ffffffffffffffffffffffffffffffffffffffff1673ffffffffffffffffffffffffffffffffffffffff166108fc60046000848152602001908152602001600020600201549081150290604051600060405180830381858888f19350505050158015610538573d6000803e3d6000fd5b5060006004600083815260200190815260200160002060030160006101000a81548160ff02191690836003811115610573576105726122cc565b5b0217905550600460008281526020019081526020016000206000808201600090556001820160006105a491906120d4565b60028201600090556003820160006101000a81549060ff02191690556003820160016101000a81549060ff02191690555050600360008154809291906105e9906125e8565b91905055506005600082815260200190815260200160002060006101000a81549073ffffffffffffffffffffffffffffffffffffffff021916905550565b600160009054906101000a900473ffffffffffffffffffffffffffffffffffffffff1673ffffffffffffffffffffffffffffffffffffffff163373ffffffffffffffffffffffffffffffffffffffff16141580156106d1575060008054906101000a900473ffffffffffffffffffffffffffffffffffffffff1673ffffffffffffffffffffffffffffffffffffffff163373ffffffffffffffffffffffffffffffffffffffff1614155b610710576040517f08c379a00000000000000000000000000000000000000000000000000000000081526004016107079061252d565b60405180910390fd5b8060006004600083815260200190815260200160002060020154141561076b576040517f08c379a00000000000000000000000000000000000000000000000000000000081526004016107629061265e565b60405180910390fd5b60016004600084815260200190815260200160002060030160006101000a81548160ff021916908360038111156107a5576107a46122cc565b5b0217905550336005600084815260200190815260200160002060006101000a81548173ffffffffffffffffffffffffffffffffffffffff021916908373ffffffffffffffffffffffffffffffffffffffff1602179055506005600083815260200190815260200160002060009054906101000a900473ffffffffffffffffffffffffffffffffffffffff1673ffffffffffffffffffffffffffffffffffffffff167fc9149a91d696dbab618fb72c9ec34beb661500ef820870ff55757663e65f936360046000858152602001908152602001600020600001546004600086815260200190815260200160002060010160046000878152602001908152602001600020600201546040516108ba93929190612774565b60405180910390a25050565b6000606060008060008560006004600083815260200190815260200160002060020154141561092a576040517f08c379a00000000000000000000000000000000000000000000000000000000081526004016109219061265e565b60405180910390fd5b600060046000898152602001908152602001600020905080600001548160010182600201548360030160009054906101000a900460ff168460030160019054906101000a900460ff1683805461097f906126ad565b80601f01602080910402602001604051908101604052809291908181526020018280546109ab906126ad565b80156109f85780601f106109cd576101008083540402835291602001916109f8565b820191906000526020600020905b8154815290600101906020018083116109db57829003601f168201915b5050505050935096509650965096509650505091939590929450565b60008054906101000a900473ffffffffffffffffffffffffffffffffffffffff1673ffffffffffffffffffffffffffffffffffffffff163373ffffffffffffffffffffffffffffffffffffffff1614610aa2576040517f08c379a0000000000000000000000000000000000000000000000000000000008152600401610a99906127fe565b60405180910390fd5b80600060046000838152602001908152602001600020600201541415610afd576040517f08c379a0000000000000000000000000000000000000000000000000000000008152600401610af49061265e565b60405180910390fd5b60006003811115610b1157610b106122cc565b5b6004600084815260200190815260200160002060030160009054906101000a900460ff166003811115610b4757610b466122cc565b5b14610b87576040517f08c379a0000000000000000000000000000000000000000000000000000000008152600401610b7e9061286a565b60405180910390fd5b600015156004600084815260200190815260200160002060030160019054906101000a900460ff16151514610bf1576040517f08c379a0000000000000000000000000000000000000000000000000000000008152600401610be8906128fc565b60405180910390fd5b60008054906101000a900473ffffffffffffffffffffffffffffffffffffffff1673ffffffffffffffffffffffffffffffffffffffff166108fc60046000858152602001908152602001600020600201549081150290604051600060405180830381858888f19350505050158015610c6d573d6000803e3d6000fd5b503373ffffffffffffffffffffffffffffffffffffffff167fdccadf99b8bc25ec1a72c5e5775d5d23a8927f4624629e9a1ec39505749d0be56004600085815260200190815260200160002060000154600460008681526020019081526020016000206001016004600087815260200190815260200160002060020154604051610cf993929190612774565b60405180910390a260046000838152602001908152602001600020600080820160009055600182016000610d2d91906120d4565b60028201600090556003820160006101000a81549060ff02191690556003820160016101000a81549060ff0219169055505060036000815480929190610d72906125e8565b91905055506005600083815260200190815260200160002060006101000a81549073ffffffffffffffffffffffffffffffffffffffff02191690555050565b60035481565b60008054906101000a900473ffffffffffffffffffffffffffffffffffffffff1673ffffffffffffffffffffffffffffffffffffffff163373ffffffffffffffffffffffffffffffffffffffff1614610e45576040517f08c379a0000000000000000000000000000000000000000000000000000000008152600401610e3c906127fe565b60405180910390fd5b600082829050118015610e59575060003414155b610e98576040517f08c379a0000000000000000000000000000000000000000000000000000000008152600401610e8f9061298e565b60405180910390fd5b60006040518060a00160405280600254815260200184848080601f016020809104026020016040519081016040528093929190818152602001838380828437600081840152601f19601f820116905080830192505050505050508152602001348152602001826003811115610f1057610f0f6122cc565b5b815260200160001515815250600460006002548152602001908152602001600020600082015181600001556020820151816001019080519060200190610f57929190612114565b506040820151816002015560608201518160030160006101000a81548160ff02191690836003811115610f8d57610f8c6122cc565b5b021790555060808201518160030160016101000a81548160ff02191690831515021790555090505060026000815480929190610fc8906129ae565b919050555060036000815480929190610fe0906129ae565b91905055503373ffffffffffffffffffffffffffffffffffffffff167f8165a425c8698915cc1819521f66b1ce9e208d8bc280a2239ab02fefd1e99dd7600460006002548152602001908152602001600020600001546004600060025481526020019081526020016000206001016004600060025481526020019081526020016000206002015460405161107693929190612774565b60405180910390a2505050565b60056020528060005260406000206000915054906101000a900473ffffffffffffffffffffffffffffffffffffffff1681565b600047905090565b60008054906101000a900473ffffffffffffffffffffffffffffffffffffffff1681565b600160009054906101000a900473ffffffffffffffffffffffffffffffffffffffff1673ffffffffffffffffffffffffffffffffffffffff163373ffffffffffffffffffffffffffffffffffffffff1614611172576040517f08c379a00000000000000000000000000000000000000000000000000000000081526004016111699061252d565b60405180910390fd5b60006004600083815260200190815260200160002060030160019054906101000a900460ff1690506004600083815260200190815260200160002060030160019054906101000a900460ff16156004600084815260200190815260200160002060030160016101000a81548160ff0219169083151502179055503373ffffffffffffffffffffffffffffffffffffffff167f9ab9f261508e75b40f7ceff585b1b52aecc66fc42fcca90c392276ceb8b53499600460008581526020019081526020016000206000015460046000868152602001908152602001600020600101846004600088815260200190815260200160002060030160019054906101000a900460ff1660405161128694939291906129f7565b60405180910390a25050565b600160009054906101000a900473ffffffffffffffffffffffffffffffffffffffff1673ffffffffffffffffffffffffffffffffffffffff163373ffffffffffffffffffffffffffffffffffffffff161415801561133c575060008054906101000a900473ffffffffffffffffffffffffffffffffffffffff1673ffffffffffffffffffffffffffffffffffffffff163373ffffffffffffffffffffffffffffffffffffffff1614155b61137b576040517f08c379a00000000000000000000000000000000000000000000000000000000081526004016113729061252d565b60405180910390fd5b806000600460008381526020019081526020016000206002015414156113d6576040517f08c379a00000000000000000000000000000000000000000000000000000000081526004016113cd9061265e565b60405180910390fd5b60016004600084815260200190815260200160002060030160016101000a81548160ff0219169083151502179055506005600083815260200190815260200160002060009054906101000a900473ffffffffffffffffffffffffffffffffffffffff1673ffffffffffffffffffffffffffffffffffffffff167f5e79578093d15aded86bcd47c6e5bd7d76c24df0c524fd09723b834ed8552130600160009054906101000a900473ffffffffffffffffffffffffffffffffffffffff1660046000868152602001908152602001600020600001546004600087815260200190815260200160002060010160046000888152602001908152602001600020600201546040516114e79493929190612a43565b60405180910390a25050565b600160009054906101000a900473ffffffffffffffffffffffffffffffffffffffff1673ffffffffffffffffffffffffffffffffffffffff163373ffffffffffffffffffffffffffffffffffffffff161415801561159d575060008054906101000a900473ffffffffffffffffffffffffffffffffffffffff1673ffffffffffffffffffffffffffffffffffffffff163373ffffffffffffffffffffffffffffffffffffffff1614155b6115dc576040517f08c379a00000000000000000000000000000000000000000000000000000000081526004016115d39061252d565b60405180910390fd5b80600060046000838152602001908152602001600020600201541415611637576040517f08c379a000000000000000000000000000000000000000000000000000000000815260040161162e9061265e565b60405180910390fd5b6005600083815260200190815260200160002060009054906101000a900473ffffffffffffffffffffffffffffffffffffffff1673ffffffffffffffffffffffffffffffffffffffff163373ffffffffffffffffffffffffffffffffffffffff16146116d8576040517f08c379a00000000000000000000000000000000000000000000000000000000081526004016116cf90612adb565b60405180910390fd5b60026004600084815260200190815260200160002060030160006101000a81548160ff02191690836003811115611712576117116122cc565b5b02179055506005600083815260200190815260200160002060009054906101000a900473ffffffffffffffffffffffffffffffffffffffff1673ffffffffffffffffffffffffffffffffffffffff167f9727fd902046e0f5fa046c43936b92258f2ccadd8d451d942b93dcea6959963d60046000858152602001908152602001600020600001546004600086815260200190815260200160002060010160046000878152602001908152602001600020600201546040516117d593929190612774565b60405180910390a25050565b600160009054906101000a900473ffffffffffffffffffffffffffffffffffffffff1673ffffffffffffffffffffffffffffffffffffffff163373ffffffffffffffffffffffffffffffffffffffff1614611871576040517f08c379a00000000000000000000000000000000000000000000000000000000081526004016118689061252d565b60405180910390fd5b600015156004600083815260200190815260200160002060030160019054906101000a900460ff161515146118db576040517f08c379a00000000000000000000000000000000000000000000000000000000081526004016118d290612b47565b60405180910390fd5b60008054906101000a900473ffffffffffffffffffffffffffffffffffffffff1673ffffffffffffffffffffffffffffffffffffffff166108fc60046000848152602001908152602001600020600201549081150290604051600060405180830381858888f19350505050158015611957573d6000803e3d6000fd5b5060006004600083815260200190815260200160002060030160006101000a81548160ff02191690836003811115611992576119916122cc565b5b02179055503373ffffffffffffffffffffffffffffffffffffffff167f3643e4e4b14d2886d7d300cc6770a8e49bedb3e5ac4370ab3a0c65e66e80ce5e6004600084815260200190815260200160002060000154600460008581526020019081526020016000206001016004600086815260200190815260200160002060020154604051611a2293929190612774565b60405180910390a260046000828152602001908152602001600020600080820160009055600182016000611a5691906120d4565b60028201600090556003820160006101000a81549060ff02191690556003820160016101000a81549060ff0219169055505060036000815480929190611a9b906125e8565b91905055506005600082815260200190815260200160002060006101000a81549073ffffffffffffffffffffffffffffffffffffffff021916905550565b600160009054906101000a900473ffffffffffffffffffffffffffffffffffffffff1673ffffffffffffffffffffffffffffffffffffffff163373ffffffffffffffffffffffffffffffffffffffff1614158015611b83575060008054906101000a900473ffffffffffffffffffffffffffffffffffffffff1673ffffffffffffffffffffffffffffffffffffffff163373ffffffffffffffffffffffffffffffffffffffff1614155b611bc2576040517f08c379a0000000000000000000000000000000000000000000000000000000008152600401611bb99061252d565b60405180910390fd5b80600060046000838152602001908152602001600020600201541415611c1d576040517f08c379a0000000000000000000000000000000000000000000000000000000008152600401611c149061265e565b60405180910390fd5b60006004600084815260200190815260200160002060030160006101000a81548160ff02191690836003811115611c5757611c566122cc565b5b02179055506005600083815260200190815260200160002060009054906101000a900473ffffffffffffffffffffffffffffffffffffffff1673ffffffffffffffffffffffffffffffffffffffff167f2e42ddea931eabecf937d8d98cc01f689d6189b18013011b64ae346d36c6aae26004600085815260200190815260200160002060000154600460008681526020019081526020016000206001016004600087815260200190815260200160002060020154604051611d1a93929190612774565b60405180910390a26005600083815260200190815260200160002060006101000a81549073ffffffffffffffffffffffffffffffffffffffff02191690555050565b600160009054906101000a900473ffffffffffffffffffffffffffffffffffffffff1681565b60008054906101000a900473ffffffffffffffffffffffffffffffffffffffff1673ffffffffffffffffffffffffffffffffffffffff163373ffffffffffffffffffffffffffffffffffffffff1614611e10576040517f08c379a0000000000000000000000000000000000000000000000000000000008152600401611e07906127fe565b60405180910390fd5b80600060046000838152602001908152602001600020600201541415611e6b576040517f08c379a0000000000000000000000000000000000000000000000000000000008152600401611e629061265e565b60405180910390fd5b60036004600084815260200190815260200160002060030160006101000a81548160ff02191690836003811115611ea557611ea46122cc565b5b0217905550600060046000848152602001908152602001600020600201549050600060046000858152602001908152602001600020600201819055506005600084815260200190815260200160002060009054906101000a900473ffffffffffffffffffffffffffffffffffffffff1673ffffffffffffffffffffffffffffffffffffffff166108fc829081150290604051600060405180830381858888f19350505050158015611f5a573d6000803e3d6000fd5b503373ffffffffffffffffffffffffffffffffffffffff167f940d653998e7dc47e93f9a085f99486ed171944050cb0eb32bcc0912bc48ddff6005600086815260200190815260200160002060009054906101000a900473ffffffffffffffffffffffffffffffffffffffff16600460008781526020019081526020016000206000015460046000888152602001908152602001600020600101600460008981526020019081526020016000206002015460405161201b9493929190612a43565b60405180910390a26004600084815260200190815260200160002060008082016000905560018201600061204f91906120d4565b60028201600090556003820160006101000a81549060ff02191690556003820160016101000a81549060ff0219169055505060036000815480929190612094906125e8565b91905055506005600084815260200190815260200160002060006101000a81549073ffffffffffffffffffffffffffffffffffffffff0219169055505050565b5080546120e0906126ad565b6000825580601f106120f25750612111565b601f016020900490600052602060002090810190612110919061219a565b5b50565b828054612120906126ad565b90600052602060002090601f0160209004810192826121425760008555612189565b82601f1061215b57805160ff1916838001178555612189565b82800160010185558215612189579182015b8281111561218857825182559160200191906001019061216d565b5b509050612196919061219a565b5090565b5b808211156121b357600081600090555060010161219b565b5090565b600080fd5b600080fd5b6000819050919050565b6121d4816121c1565b81146121df57600080fd5b50565b6000813590506121f1816121cb565b92915050565b60006020828403121561220d5761220c6121b7565b5b600061221b848285016121e2565b91505092915050565b61222d816121c1565b82525050565b600081519050919050565b600082825260208201905092915050565b60005b8381101561226d578082015181840152602081019050612252565b8381111561227c576000848401525b50505050565b6000601f19601f8301169050919050565b600061229e82612233565b6122a8818561223e565b93506122b881856020860161224f565b6122c181612282565b840191505092915050565b7f4e487b7100000000000000000000000000000000000000000000000000000000600052602160045260246000fd5b6004811061230c5761230b6122cc565b5b50565b600081905061231d826122fb565b919050565b600061232d8261230f565b9050919050565b61233d81612322565b82525050565b60008115159050919050565b61235881612343565b82525050565b600060a0820190506123736000830188612224565b81810360208301526123858187612293565b90506123946040830186612224565b6123a16060830185612334565b6123ae608083018461234f565b9695505050505050565b60006020820190506123cd6000830184612224565b92915050565b600080fd5b600080fd5b600080fd5b60008083601f8401126123f8576123f76123d3565b5b8235905067ffffffffffffffff811115612415576124146123d8565b5b602083019150836001820283011115612431576124306123dd565b5b9250929050565b6000806020838503121561244f5761244e6121b7565b5b600083013567ffffffffffffffff81111561246d5761246c6121bc565b5b612479858286016123e2565b92509250509250929050565b600073ffffffffffffffffffffffffffffffffffffffff82169050919050565b60006124b082612485565b9050919050565b6124c0816124a5565b82525050565b60006020820190506124db60008301846124b7565b92915050565b7f596f7520617265206e6f7420617574686f72697a656421000000000000000000600082015250565b600061251760178361223e565b9150612522826124e1565b602082019050919050565b600060208201905081810360008301526125468161250a565b9050919050565b7f526566756e642062656e656669636961727920696e7374656164210000000000600082015250565b6000612583601b8361223e565b915061258e8261254d565b602082019050919050565b600060208201905081810360008301526125b281612576565b9050919050565b7f4e487b7100000000000000000000000000000000000000000000000000000000600052601160045260246000fd5b60006125f3826121c1565b91506000821415612607576126066125b9565b5b600182039050919050565b7f5461736b20646f6573206e6f7420657869737421000000000000000000000000600082015250565b600061264860148361223e565b915061265382612612565b602082019050919050565b600060208201905081810360008301526126778161263b565b9050919050565b7f4e487b7100000000000000000000000000000000000000000000000000000000600052602260045260246000fd5b600060028204905060018216806126c557607f821691505b602082108114156126d9576126d861267e565b5b50919050565b60008190508160005260206000209050919050565b60008154612701816126ad565b61270b818661223e565b9450600182166000811461272657600181146127385761276b565b60ff198316865260208601935061276b565b612741856126df565b60005b8381101561276357815481890152600182019150602081019050612744565b808801955050505b50505092915050565b60006060820190506127896000830186612224565b818103602083015261279b81856126f4565b90506127aa6040830184612224565b949350505050565b7f596f7520617265206e6f7420746865204f776e65722100000000000000000000600082015250565b60006127e860168361223e565b91506127f3826127b2565b602082019050919050565b60006020820190508181036000830152612817816127db565b9050919050565b7f436f6e7461637420417262697465722100000000000000000000000000000000600082015250565b600061285460108361223e565b915061285f8261281e565b602082019050919050565b6000602082019050818103600083015261288381612847565b9050919050565b7f436f6e74616374204172626974657220666f722064697370757465207265736f60008201527f6c7574696f6e0000000000000000000000000000000000000000000000000000602082015250565b60006128e660268361223e565b91506128f18261288a565b604082019050919050565b60006020820190508181036000830152612915816128d9565b9050919050565b7f596f75206d757374206164642061207461736b20616e642073656e642065746860008201527f6572000000000000000000000000000000000000000000000000000000000000602082015250565b600061297860228361223e565b91506129838261291c565b604082019050919050565b600060208201905081810360008301526129a78161296b565b9050919050565b60006129b9826121c1565b91507fffffffffffffffffffffffffffffffffffffffffffffffffffffffffffffffff8214156129ec576129eb6125b9565b5b600182019050919050565b6000608082019050612a0c6000830187612224565b8181036020830152612a1e81866126f4565b9050612a2d604083018561234f565b612a3a606083018461234f565b95945050505050565b6000608082019050612a5860008301876124b7565b612a656020830186612224565b8181036040830152612a7781856126f4565b9050612a866060830184612224565b95945050505050565b7f596f752063616e6e6f74207375626d697420666f722074686973207461736b00600082015250565b6000612ac5601f8361223e565b9150612ad082612a8f565b602082019050919050565b60006020820190508181036000830152612af481612ab8565b9050919050565b7f52657175697265732044697370757465207265736f6c7574696f6e2100000000600082015250565b6000612b31601c8361223e565b9150612b3c82612afb565b602082019050919050565b60006020820190508181036000830152612b6081612b24565b905091905056fea26469706673582212200f24bc0121a5bbd00854bdaadf4d19fe2c73d8ba5094d0d1515b1cb9c0365c1d64736f6c63430008090033",
  "immutableReferences": {},
  "source": "// SPDX-License-Identifier: MIT\npragma solidity >=0.4.22 <0.9.0;\n\ncontract RemoteWorkEscrow{\n    \n    //define the events\n    event newTask(address indexed sender, uint id, string name, uint amount);\n    event closeTask(address indexed sender, address beneficiary, uint id, string name, uint amount);\n    event deletedTask(address indexed sender, uint id, string name, uint amount);\n    event acceptedTask(address indexed sender, uint id, string name, uint amount);\n    event submittedTask(address indexed sender, uint id, string name, uint amount);\n    event abandonedTask(address indexed sender, uint id, string name, uint amount);\n    event disputedTask(address indexed sender,address resolver, uint id, string name, uint amount);\n    event beneficiaryRefunded(address indexed sender, uint id, string name, uint amount);\n    event toggleDisputeMarker(address indexed sender, uint id, string name, bool prev, bool current);\n\n    /**Declare all the variables and data types used in the contract.\n     * The TaskToAmount stores that amount assigned to each Task\n     * The TaskState stores the state of completion of the task. */\n    \n    address public owner; //deployer of contract\n    address public arbiter; //arbitrator, supplied by contract\n    uint taskId; //unique identifier for each task\n    uint public taskCounter; //counter for number of tasks created\n    \n    \n\n    //define the state of the Task\n    enum TaskState {Uninitiated, Initiated, UnderReview, Completed}\n    \n    //create a data type to store job requests\n    struct Task{\n        uint TaskId;\n        string TaskName;\n        uint256 amount;\n        TaskState _state;\n        bool dispute; //defines whether there is a payment dispute on the task, can only be made true by agent\n    } \n    \n    //store the Job Id and the amount for the Job\n    mapping(uint =>  Task) Tasks;\n    mapping(uint => address) public AgentToTask;\n    \n    //define the access controls for the contract\n    modifier onlyOwner(){\n        require(msg.sender == owner, \"You are not the Owner!\");\n        _;\n    }\n    \n    modifier onlyArbiter(){\n        require(msg.sender == arbiter, \"You are not authorized!\");\n        _;\n    }\n    \n    modifier onlyAgent(){\n        require(msg.sender != arbiter && msg.sender != owner, \"You are not authorized!\");\n        _;\n    }\n    modifier taskExists(uint _taskId){\n        require(Tasks[_taskId].amount != 0, \"Task does not exist!\");\n        _;\n    }\n    \n    constructor(address _arbiter){\n        owner = msg.sender;\n        arbiter = _arbiter;\n        taskId = 1;\n    }\n    \n    /** Owners functions\n    - addTask: This function adds a new task, and keeps track of tasks created.\n    - getContract Balance: This function is available to all parties.\n    - getTask: The getter function for viewing a task by its unique identifier.\n    - acceptCompletion: Allows the owner accept that a task is completed, and trasnfers funds to the Agent.\n    - deleteTask: Allows the pwner delete tasks that are not under dispute.*/\n    function addTask(string calldata _taskName) payable external onlyOwner {\n        require(bytes(_taskName).length > 0 && msg.value != 0, \"You must add a task and send ether\");\n        TaskState state = TaskState.Uninitiated;\n        Tasks[taskId] = Task(taskId, _taskName, msg.value, state, false);\n        taskId++;\n        taskCounter++;\n        emit newTask(msg.sender, Tasks[taskId].TaskId, Tasks[taskId].TaskName, Tasks[taskId].amount);\n    }\n    \n    function getContractBalance() view external returns(uint256) {\n        return address(this).balance;\n    }\n    \n    function getTask(uint _Id) view external taskExists(_Id) returns(uint _taskId,string memory _taskName, uint _taskAmount, TaskState, bool UnderDispute) {\n        Task storage taskInstance = Tasks[_Id];\n        return(taskInstance.TaskId, taskInstance.TaskName, taskInstance.amount, taskInstance._state, taskInstance.dispute);\n    }\n    \n    function acceptCompletion(uint _taskId) public onlyOwner taskExists(_taskId) {\n        Tasks[_taskId]._state = TaskState.Completed;\n        uint holder = Tasks[_taskId].amount;\n        Tasks[_taskId].amount = 0;\n        payable(AgentToTask[_taskId]).transfer(holder);\n        emit closeTask(msg.sender, AgentToTask[_taskId], Tasks[_taskId].TaskId, Tasks[_taskId].TaskName, Tasks[_taskId].amount);\n        delete Tasks[_taskId];\n        taskCounter--;\n        delete AgentToTask[_taskId];\n        \n    }\n    \n    function deleteTask(uint _taskId) public onlyOwner taskExists(_taskId) {\n        require(Tasks[_taskId]._state == TaskState.Uninitiated, \"Contact Arbiter!\" );\n        require(Tasks[_taskId].dispute == false, \"Contact Arbiter for dispute resolution\");\n        payable(owner).transfer(Tasks[_taskId].amount);\n        emit deletedTask(msg.sender, Tasks[_taskId].TaskId, Tasks[_taskId].TaskName, Tasks[_taskId].amount);\n        delete Tasks[_taskId];\n        taskCounter--;\n        delete AgentToTask[_taskId];\n    }\n    \n    /**Agent's functions\n    - acceptTask: Allows the agent to accept a job.\n    - taskSubmitted: Allows the agent to declare a task has been submitted.\n    - abandonTask: Allows the agent to reject a task, after initially accepting it.\n    - raiseDispute: Allows the agent to raise a dispute on a Task, this prevents the owner from \n                    taking advantage of the Agent  */\n    function acceptTask(uint _taskId) external onlyAgent taskExists(_taskId) {\n        Tasks[_taskId]._state = TaskState.Initiated;\n        AgentToTask[_taskId] = msg.sender;\n        emit acceptedTask(AgentToTask[_taskId], Tasks[_taskId].TaskId, Tasks[_taskId].TaskName, Tasks[_taskId].amount);\n    }\n    \n    function taskSubmitted(uint _taskId) external onlyAgent taskExists(_taskId) {\n        require(msg.sender == AgentToTask[_taskId], \"You cannot submit for this task\");\n        Tasks[_taskId]._state = TaskState.UnderReview;\n        emit submittedTask(AgentToTask[_taskId], Tasks[_taskId].TaskId, Tasks[_taskId].TaskName, Tasks[_taskId].amount);\n    }\n    \n    function abandonTask(uint _taskId) external onlyAgent taskExists(_taskId) {\n        Tasks[_taskId]._state = TaskState.Uninitiated;\n        emit abandonedTask(AgentToTask[_taskId], Tasks[_taskId].TaskId, Tasks[_taskId].TaskName, Tasks[_taskId].amount);\n        delete AgentToTask[_taskId];\n    }\n    \n    function raiseDispute(uint _taskId) external onlyAgent taskExists(_taskId) {\n        Tasks[_taskId].dispute = true;\n        emit disputedTask(AgentToTask[_taskId], arbiter, Tasks[_taskId].TaskId, Tasks[_taskId].TaskName, Tasks[_taskId].amount);\n    }\n    \n    /** Arbiter's functions:\n    - refundBeneficary: This function allows the Arbiter refund the owner of the contract\n                        for a specific task, provided the task is not under dispute. \n    - payAgent: This function allows the Arbiter pay the agent, given that the dispute has\n                been resolved in favour of the Agent. */\n    function refundBeneficiary(uint _taskId) external onlyArbiter {\n        require(Tasks[_taskId].dispute == false, \"Requires Dispute resolution!\");\n        payable(owner).transfer(Tasks[_taskId].amount);\n        Tasks[_taskId]._state = TaskState.Uninitiated;\n        emit beneficiaryRefunded(msg.sender, Tasks[_taskId].TaskId, Tasks[_taskId].TaskName, Tasks[_taskId].amount);\n        delete Tasks[_taskId];\n        taskCounter--;\n        delete AgentToTask[_taskId];\n    }\n    \n    function payAgent(uint _taskId) external onlyArbiter {\n        require(Tasks[_taskId].dispute == true, \"Refund beneficiary instead!\");\n        payable(AgentToTask[_taskId]).transfer(Tasks[_taskId].amount);\n        Tasks[_taskId]._state = TaskState.Uninitiated;\n        delete Tasks[_taskId];\n        taskCounter--;\n        delete AgentToTask[_taskId];\n    }\n\n    function toggleDispute(uint _taskId) external onlyArbiter {\n        bool prev = Tasks[_taskId].dispute;\n        Tasks[_taskId].dispute = !Tasks[_taskId].dispute;\n        emit toggleDisputeMarker(msg.sender, Tasks[_taskId].TaskId, Tasks[_taskId].TaskName, prev, Tasks[_taskId].dispute);\n        \n\n    }\n    \n    \n}",
  "sourcePath": "C:\\Users\\DELL\\Documents\\Professional Portfolio\\RemoteWorkEscrow\\contracts\\RemoteWorkEscrow.sol",
  "compiler": {
    "name": "solc",
    "version": "0.8.9+commit.e5eed63a.Emscripten.clang"
  },
  "schemaVersion": "3.4.3",
  "updatedAt": "2021-10-10T10:16:52.677Z",
  "devdoc": {
    "kind": "dev",
    "methods": {},
    "version": 1
  },
  "userdoc": {
    "kind": "user",
    "methods": {
      "acceptTask(uint256)": {
        "notice": "Agent's functions - acceptTask: Allows the agent to accept a job. - taskSubmitted: Allows the agent to declare a task has been submitted. - abandonTask: Allows the agent to reject a task, after initially accepting it. - raiseDispute: Allows the agent to raise a dispute on a Task, this prevents the owner from  taking advantage of the Agent  "
      },
      "addTask(string)": {
        "notice": "Owners functions - addTask: This function adds a new task, and keeps track of tasks created. - getContract Balance: This function is available to all parties. - getTask: The getter function for viewing a task by its unique identifier. - acceptCompletion: Allows the owner accept that a task is completed, and trasnfers funds to the Agent. - deleteTask: Allows the pwner delete tasks that are not under dispute."
      },
      "owner()": {
        "notice": "Declare all the variables and data types used in the contract. The TaskToAmount stores that amount assigned to each Task The TaskState stores the state of completion of the task. "
      },
      "refundBeneficiary(uint256)": {
        "notice": "Arbiter's functions: - refundBeneficary: This function allows the Arbiter refund the owner of the contract for a specific task, provided the task is not under dispute.  - payAgent: This function allows the Arbiter pay the agent, given that the dispute has been resolved in favour of the Agent. "
      }
    },
    "version": 1
  }
}